:020000000C945E
:1000020072000C9400000C9400000C9400000C94FC
:1000120000000C9400000C9400000C9400000C945E
:1000220000000C9400000C9400000C9400000C944E
:1000320000000C9400000C9400000C9400000C943E
:10004200EE000C9400000C9400000C9400000C9440
:1000520000000C94A1000C9400000C9400000C947D
:1000620000000C9400001027E80364000A0001005D
:100072000010000110000100555000444F574E007F
:100082004C4546540052494748540053454C454359
:1000920054006164633D25642C2030782558005754
:1000A2006F726B696E672E2E2E00636E74203D2078
:1000B20025643B0080C0030000037A0005000303AF
:1000C2007D0005000803820006000D03870007007B
:1000D20013038D000B001A03A10002003703B600C0
:1000E2000000F894EE27EFBBF1E0F5BFE5BF8DE02D
:1000F200A2E0BB27ED938A95E9F780E098E0A0E0C3
:10010200B1E0ED930197E9F7E8EBF0E08591959185
:10011200009761F0A591B59105901590BF01F0018E
:1001220005900D920197E1F7FB01F0CFE0E0EEBB05
:10013200EFEFEDBFE8E0EEBFC0E0D3E00C94A60124
:100142000A92EA93FA93EFB7EA93309078004090DC
:100152007900E2E3F0E0E315F40528F4E8ECF0E0DE
:100162003E164F0608F002C0E1E08E2AE8ECF0E00D
:10017200E315F40528F4ECE2F1E03E164F0608F030
:1001820002C0E2E08E2A032C042829F0E2E3F0E028
:100192003E164F0610F4E4E08E2AECE2F1E0E3159D
:1001A200F40528F4E4EFF1E03E164F0608F002C031
:1001B200E8E08E2AE4EFF1E0E315F40528F4ECEB35
:1001C200F2E03E164F0608F002C0E0E18E2AE99105
:1001D200EFBFF991E991099018950A921A92FA9251
:1001E2006A937A938A939A93AA93BA93EA93FA9325
:1001F200EFB7EA93E8E3E6BDA0E1B7E280D0E99188
:10020200EFBFF991E991B991A99199918991799168
:100212006991F990199009901895E0E8E0936100CE
:10022200E0E0E0936100EFEFE4B9E0E0E5B9E7B9BF
:10023200E2E0E8B9EFEFEAB9E0E0EBB9E4BDE2E011
:10024200E5BDE8E3E6BDE0E0E7BDE8BDE0938000A0
:10025200E0938100E0938500E0938400E0938700BF
:10026200E0938600E0938900E0938800E0938B009E
:10027200E0938A00E093B600E093B000E7E0E093F9
:10028200B100E4E6E093B200E0E0E093B300E09373
:10029200B400E1E0E0936E00E0E0E0936F00E093F1
:1002A2007000E0936900EDBBE0936800E093C0004A
:1002B200E8E0E093C100E6E0E093C200E0E0E09312
:1002C200C500E7E6E093C400E0E8E0BFE0E0E093C9
:1002D2007F00E1E0E0937E00E0E4E0937C00EFE861
:1002E200E0937A00E0E0E0937B00E0E5ECBDE1E042
:1002F200EDBDE0E0E093BC00A0E1B4D00895BA9374
:10030200AA9370FC21C0359903C0E2E07E2A08C09E
:1003120071FE06C0E1E0F0E05E0E6F1EEDEF7E22A0
:10032200A5E3B3E00E941C04E881F981A0913503A2
:10033200B0913603EA17FB0739F4E0E0E0933503A6
:10034200E0933603E1E07E2A59C067DF78942A9869
:10035200AAE1B3E076D0A8EEB3E00E945C0450D0EC
:1003620070FE1EC04DD0E0E0EA93A0E03CD0E5E292
:10037200F3E0FA93EA93ECEAF0E0FA93EA93E52DDC
:10038200F62D662777270E94760484E00E94CF0329
:10039200289655246624A5E2B3E053D0EEEF7E22E0
:1003A200DFCFFFCFAA93EBB1EF70AE2FE881E07FF2
:1003B200EA2BEBB98BE18A95F1F7299A8BE18A95C1
:1003C200F1F729988BE18A95F1F778C0AA93A88171
:1003D200E9DFE881E295E883A881E4DF88EC90E038
:1003E2000197F1F76BC0AA93E881F0E0E95CFC4F5A
:1003F200E081A981AE0FEADFA98098802296089554
:10040200A2E00E942204ACE0E1DFA1E00E9422040B
:10041200E0E09E2EAE2E0895AA93A881AA3011F094
:10042200AC1448F0E0E0EA939394A92DDCDFA881B4
:10043200AA3009F443C0A394289AA881C7DF289858
:100442003DC0BA93AA931A93A981BA81ED91A98367
:10045200BA831E2FE03019F0A12FDEDFF5CF18810D
:1004620023960895AA93EAB1E06FEAB9219A209AF5
:10047200279A299828982F98C880E881E058E09315
:100482003903E881E054E0933A03A4E1B0E00E942A
:100492005C040E9428040E9428040E942804A0E20E
:1004A20081DF80E991E00197F1F7A8E28FDFA4E014
:1004B2008DDFA5E88BDFA6E089DFA2DF2196089514
:1004C200BA93AA931A930A93AA81BB8112960E94A5
:1004D2006E04309729F1AA81BB8114960E946E04A2
:1004E2008F01309761F00230E0E01E0780F0F801E2
:1004F20031978F01AA81BB811496ED93FC93AA8157
:10050200BB8112960E941C043197AC81A083AA8100
:10051200BB810E946E04FF2312F00E941C0406C0DD
:10052200AA81BB81EFEFFFEFED93FC931981088164
:1005320025960895BA93AA9326970E947B0410E009
:10054200AC85BD85E0E0F0E0ED93FC93EA89FB89A0
:100552003196EA8BFB8B3197E4912E2FE03009F430
:1005620015C1E12FE03039F4253211F411E002C057
:100572000E9430040AC1E130A9F4253219F40E9424
:10058200300402C112E040E000E02D3211F401E03B
:10059200FCC02B3211F44BE2F8C0203211F440E2DD
:1005A200F4C002C0E23039F450E013E0203311F419
:1005B2000068EBC003C0E33009F0E7C0203310F05D
:1005C2002A3308F007C0AAE05A9F502DE22FE053C9
:1005D2005E0FDBC0E22FE33649F40E943704E8895C
:1005E200F989A481AA930E943D04CEC0E33741F465
:1005F2000E9437040E9443040E9403041E2F0AC073
:10060200E03761F40E9437040E9443040E940F0401
:100612001E2F086002600F7730E034C0E43611F01C
:10062200E93611F4046002C0E53731F4E8E6F0E09F
:10063200EE83FF8315E00CC0E83511F4086003C0B7
:10064200E83709F0A1C0E2E7F0E0EE83FF8314E0AF
:1006520002FF14C00E9437040E944D04AB85AA23F6
:100662003AF4EA85FB850E946A04EA87FB874DE239
:10067200403011F01F5F01C00B7F04C00E9437049D
:100682000E944D0400FD11C0151778F407FF08C041
:1006920002FF04C00B7F242F115001C020E301C0D0
:1006A20020E20E9430045150EFCF312F01FF17C0DA
:1006B2003030A1F003FF06C0EE81FF812591EE8369
:1006C200FF8305C0AE81BF812D91AE83BF830E949F
:1006D2003004503009F051503150EACF4BC020E382
:1006E200EE81FF810E947204E887F987EE81FF8123
:1006F2003296EE83FF83E885F985AA85BB85AE171E
:10070200BF0750F02F5FA885B985EA85FB85EA1BF4
:10071200FB0BEA87FB87EFCF2A3328F003FF02C0E7
:10072200295F01C0295D04FD1AC0213320F4A88588
:10073200B985119709F409C0531710F000FF01C0E1
:1007420013C020E207FF0BC020E3006102FF07C0D5
:100752000B7F4A930E943D04503009F051500E9491
:100762003004503009F051503150A885B9851297A4
:1007720008F0B5CF00FF08C0503031F05150E0E230
:10078200EA930E943D04F8CF10E0E0CEAC85BD852F
:100792000E946E040E94820464960895FF92F82ECD
:1007A20026970E947D040E945504309719F4EFEFBA
:1007B200FFEF23C0DE0116960E9466048D010E949F
:1007C2005504EE83FF83E0E0E887E987DE011A96AD
:1007D2000E9466040E946E04FA93EA931A930A93A3
:1007E200E1E6F2E0FA93EA93DE011A96A3DE9F01B4
:1007F200AE81BF81E0E0EC93F9010E9484042A9665
:10080200FF900895BA93AA93A991B991EE27FF2771
:100812006D91662311F03196FBCF0895BA93AA9396
:10082200AA27BB27E991F9910590002011F01196B2
:10083200FBCFFD010895ED91FD913196FE93EE936C
:1008420008950E94E701A3E0B0E00C945C04A0E3E9
:100852000E94D30180E991E00197F1F708952A936C
:10086200AD85BE85EF85F88909950895E889F989EE
:100872003497E88BF98B0895AD85BE85EF85F889AD
:1008820009950895A889B98914960E946E04EE8389
:10089200FF83AE81BF810895A889B98914960E9409
:1008A2006E04EA87FB870895DE011C960E946604A7
:1008B2000E946E040895109639F080EA9FE0019735
:1008C200F1F7A8951197C9F708950024AF0DB01D4F
:1008D2000895F195E195F0400895ED91FC911197FD
:1008E20008950590F491E02D08957A936A93FA930E
:1008F200EA9308955A934A933A932A931A930A933E
:1009020008955D814C813B812A8119810881089576
:00000001FF
